{
  "contractName": "FurnitureMarketplace",
  "abi": [
    {
      "inputs": [],
      "stateMutability": "nonpayable",
      "type": "constructor"
    },
    {
      "anonymous": false,
      "inputs": [
        {
          "indexed": false,
          "internalType": "uint256",
          "name": "id",
          "type": "uint256"
        },
        {
          "indexed": false,
          "internalType": "string",
          "name": "name",
          "type": "string"
        },
        {
          "indexed": false,
          "internalType": "string",
          "name": "condition",
          "type": "string"
        },
        {
          "indexed": false,
          "internalType": "address",
          "name": "ownerAddress",
          "type": "address"
        },
        {
          "indexed": false,
          "internalType": "uint256",
          "name": "price",
          "type": "uint256"
        },
        {
          "indexed": false,
          "internalType": "bool",
          "name": "active",
          "type": "bool"
        }
      ],
      "name": "FurnitureCreated",
      "type": "event"
    },
    {
      "anonymous": false,
      "inputs": [
        {
          "indexed": false,
          "internalType": "uint256",
          "name": "id",
          "type": "uint256"
        }
      ],
      "name": "FurnitureDeleted",
      "type": "event"
    },
    {
      "anonymous": false,
      "inputs": [
        {
          "indexed": false,
          "internalType": "uint256",
          "name": "id",
          "type": "uint256"
        },
        {
          "indexed": false,
          "internalType": "address",
          "name": "from",
          "type": "address"
        },
        {
          "indexed": false,
          "internalType": "address",
          "name": "to",
          "type": "address"
        }
      ],
      "name": "FurnitureTransferred",
      "type": "event"
    },
    {
      "anonymous": false,
      "inputs": [
        {
          "indexed": false,
          "internalType": "uint256",
          "name": "id",
          "type": "uint256"
        },
        {
          "indexed": false,
          "internalType": "string",
          "name": "name",
          "type": "string"
        },
        {
          "indexed": false,
          "internalType": "string",
          "name": "condition",
          "type": "string"
        },
        {
          "indexed": false,
          "internalType": "uint256",
          "name": "price",
          "type": "uint256"
        }
      ],
      "name": "FurnitureUpdated",
      "type": "event"
    },
    {
      "inputs": [
        {
          "internalType": "uint256",
          "name": "",
          "type": "uint256"
        }
      ],
      "name": "furnitureList",
      "outputs": [
        {
          "internalType": "uint256",
          "name": "id",
          "type": "uint256"
        },
        {
          "internalType": "string",
          "name": "name",
          "type": "string"
        },
        {
          "internalType": "string",
          "name": "condition",
          "type": "string"
        },
        {
          "internalType": "address",
          "name": "ownerAddress",
          "type": "address"
        },
        {
          "internalType": "uint256",
          "name": "price",
          "type": "uint256"
        },
        {
          "internalType": "bool",
          "name": "active",
          "type": "bool"
        }
      ],
      "stateMutability": "view",
      "type": "function"
    },
    {
      "inputs": [],
      "name": "id",
      "outputs": [
        {
          "internalType": "uint256",
          "name": "",
          "type": "uint256"
        }
      ],
      "stateMutability": "view",
      "type": "function"
    },
    {
      "inputs": [
        {
          "internalType": "string",
          "name": "_name",
          "type": "string"
        },
        {
          "internalType": "string",
          "name": "_condition",
          "type": "string"
        },
        {
          "internalType": "uint256",
          "name": "_price",
          "type": "uint256"
        }
      ],
      "name": "createFurniture",
      "outputs": [],
      "stateMutability": "nonpayable",
      "type": "function"
    },
    {
      "inputs": [
        {
          "internalType": "uint256",
          "name": "_id",
          "type": "uint256"
        },
        {
          "internalType": "string",
          "name": "_name",
          "type": "string"
        },
        {
          "internalType": "string",
          "name": "_condition",
          "type": "string"
        },
        {
          "internalType": "uint256",
          "name": "_price",
          "type": "uint256"
        }
      ],
      "name": "updateFurniture",
      "outputs": [],
      "stateMutability": "nonpayable",
      "type": "function"
    },
    {
      "inputs": [
        {
          "internalType": "uint256",
          "name": "_id",
          "type": "uint256"
        },
        {
          "internalType": "address payable",
          "name": "_to",
          "type": "address"
        }
      ],
      "name": "transferFurniture",
      "outputs": [],
      "stateMutability": "payable",
      "type": "function"
    },
    {
      "inputs": [
        {
          "internalType": "uint256",
          "name": "_id",
          "type": "uint256"
        },
        {
          "internalType": "address",
          "name": "_owner",
          "type": "address"
        }
      ],
      "name": "deleteFurniture",
      "outputs": [],
      "stateMutability": "nonpayable",
      "type": "function"
    }
  ],
  "bytecode": "0x608060405260036000553480156200001657600080fd5b506040518060c00160405280600081526020016040518060400160405280601c81526020017f31393030732061757468656e7469632076696e74616765206465736b0000000081525081526020016040518060400160405280600381526020017f4e6577000000000000000000000000000000000000000000000000000000000081525081526020013373ffffffffffffffffffffffffffffffffffffffff16815260200167016345785d8a0000815260200160011515815250600160008081526020019081526020016000206000820151816000015560208201518160010190805190602001906200010b929190620004b6565b5060408201518160020190805190602001906200012a929190620004b6565b5060608201518160030160006101000a81548173ffffffffffffffffffffffffffffffffffffffff021916908373ffffffffffffffffffffffffffffffffffffffff1602179055506080820151816004015560a08201518160050160006101000a81548160ff0219169083151502179055509050506040518060c00160405280600181526020016040518060400160405280601881526020017f31383830732076696e74616765206368616e64656c696572000000000000000081525081526020016040518060400160405280600481526020017f466169720000000000000000000000000000000000000000000000000000000081525081526020013373ffffffffffffffffffffffffffffffffffffffff1681526020016703782dace9d90000815260200160011515815250600160006001815260200190815260200160002060008201518160000155602082015181600101908051906020019062000294929190620004b6565b506040820151816002019080519060200190620002b3929190620004b6565b5060608201518160030160006101000a81548173ffffffffffffffffffffffffffffffffffffffff021916908373ffffffffffffffffffffffffffffffffffffffff1602179055506080820151816004015560a08201518160050160006101000a81548160ff0219169083151502179055509050506040518060c00160405280600281526020016040518060400160405280600e81526020017f494b454120626564206672616d6500000000000000000000000000000000000081525081526020016040518060400160405280600381526020017f4e6577000000000000000000000000000000000000000000000000000000000081525081526020013373ffffffffffffffffffffffffffffffffffffffff168152602001662e2f6e5e14800081526020016001151581525060016000600281526020019081526020016000206000820151816000015560208201518160010190805190602001906200041c929190620004b6565b5060408201518160020190805190602001906200043b929190620004b6565b5060608201518160030160006101000a81548173ffffffffffffffffffffffffffffffffffffffff021916908373ffffffffffffffffffffffffffffffffffffffff1602179055506080820151816004015560a08201518160050160006101000a81548160ff021916908315150217905550905050620005ca565b828054620004c49062000595565b90600052602060002090601f016020900481019282620004e8576000855562000534565b82601f106200050357805160ff191683800117855562000534565b8280016001018555821562000534579182015b828111156200053357825182559160200191906001019062000516565b5b50905062000543919062000547565b5090565b5b808211156200056257600081600090555060010162000548565b5090565b7f4e487b7100000000000000000000000000000000000000000000000000000000600052602260045260246000fd5b60006002820490506001821680620005ae57607f821691505b602082108103620005c457620005c362000566565b5b50919050565b6111a680620005da6000396000f3fe6080604052600436106100555760003560e01c806325b1ce0a1461005a5780639e9d2e6114610076578063af640d0f1461009f578063b730c23f146100ca578063e3818b9f146100f3578063f33cd8f214610135575b600080fd5b610074600480360381019061006f9190610a0c565b61015e565b005b34801561008257600080fd5b5061009d60048036038101906100989190610b92565b61028b565b005b3480156100ab57600080fd5b506100b4610405565b6040516100c19190610c2c565b60405180910390f35b3480156100d657600080fd5b506100f160048036038101906100ec9190610c47565b61040b565b005b3480156100ff57600080fd5b5061011a60048036038101906101159190610ce6565b610533565b60405161012c96959493929190610dd7565b60405180910390f35b34801561014157600080fd5b5061015c60048036038101906101579190610e72565b6106ac565b005b6000600160008481526020019081526020016000209050806004015434146101bb576040517f08c379a00000000000000000000000000000000000000000000000000000000081526004016101b290610efe565b60405180910390fd5b818160030160006101000a81548173ffffffffffffffffffffffffffffffffffffffff021916908373ffffffffffffffffffffffffffffffffffffffff16021790555060003390508073ffffffffffffffffffffffffffffffffffffffff166108fc349081150290604051600060405180830381858888f19350505050158015610249573d6000803e3d6000fd5b507f2b22e0a2e772e4be67709cde186a7e3d8fa44ad3e82e1e71a403eec3476b7a8984338560405161027d93929190610f7d565b60405180910390a150505050565b60006040518060c0016040528060005481526020018581526020018481526020013373ffffffffffffffffffffffffffffffffffffffff168152602001838152602001600115158152509050806001600080548152602001908152602001600020600082015181600001556020820151816001019080519060200190610312929190610881565b50604082015181600201908051906020019061032f929190610881565b5060608201518160030160006101000a81548173ffffffffffffffffffffffffffffffffffffffff021916908373ffffffffffffffffffffffffffffffffffffffff1602179055506080820151816004015560a08201518160050160006101000a81548160ff0219169083151502179055509050507f6075ee6b6ba05207a929cee7bc7eda2254193d475b1f83e09534e8aaa34e02986000548585338660016040516103e096959493929190610dd7565b60405180910390a16000808154809291906103fa90610fe3565b919050555050505050565b60005481565b60006001600086815260200190815260200160002090508060030160009054906101000a900473ffffffffffffffffffffffffffffffffffffffff1673ffffffffffffffffffffffffffffffffffffffff163373ffffffffffffffffffffffffffffffffffffffff16146104b4576040517f08c379a00000000000000000000000000000000000000000000000000000000081526004016104ab9061109d565b60405180910390fd5b838160010190805190602001906104cc929190610881565b50828160020190805190602001906104e5929190610881565b508181600401819055507f7d1cf5e26648df2522f1210cdc86096299bb59b754c073150270ad5f5cb436fb8585858560405161052494939291906110bd565b60405180910390a15050505050565b600160205280600052604060002060009150905080600001549080600101805461055c9061113f565b80601f01602080910402602001604051908101604052809291908181526020018280546105889061113f565b80156105d55780601f106105aa576101008083540402835291602001916105d5565b820191906000526020600020905b8154815290600101906020018083116105b857829003601f168201915b5050505050908060020180546105ea9061113f565b80601f01602080910402602001604051908101604052809291908181526020018280546106169061113f565b80156106635780601f1061063857610100808354040283529160200191610663565b820191906000526020600020905b81548152906001019060200180831161064657829003601f168201915b5050505050908060030160009054906101000a900473ffffffffffffffffffffffffffffffffffffffff16908060040154908060050160009054906101000a900460ff16905086565b600060016000848152602001908152602001600020905060008073ffffffffffffffffffffffffffffffffffffffff168373ffffffffffffffffffffffffffffffffffffffff16146106fe5782610700565b335b90508160030160009054906101000a900473ffffffffffffffffffffffffffffffffffffffff1673ffffffffffffffffffffffffffffffffffffffff168173ffffffffffffffffffffffffffffffffffffffff1614610794576040517f08c379a000000000000000000000000000000000000000000000000000000000815260040161078b9061109d565b60405180910390fd5b60006001600086815260200190815260200160002060050160006101000a81548160ff021916908315150217905550600160008581526020019081526020016000206000808201600090556001820160006107ef9190610907565b6002820160006107ff9190610907565b6003820160006101000a81549073ffffffffffffffffffffffffffffffffffffffff021916905560048201600090556005820160006101000a81549060ff021916905550507fdc23293ab16067bedf473776c327e9bb42ff2c722418a37408f08c5ac72f65d1846040516108739190610c2c565b60405180910390a150505050565b82805461088d9061113f565b90600052602060002090601f0160209004810192826108af57600085556108f6565b82601f106108c857805160ff19168380011785556108f6565b828001600101855582156108f6579182015b828111156108f55782518255916020019190600101906108da565b5b5090506109039190610947565b5090565b5080546109139061113f565b6000825580601f106109255750610944565b601f0160209004906000526020600020908101906109439190610947565b5b50565b5b80821115610960576000816000905550600101610948565b5090565b6000604051905090565b600080fd5b600080fd5b6000819050919050565b61098b81610978565b811461099657600080fd5b50565b6000813590506109a881610982565b92915050565b600073ffffffffffffffffffffffffffffffffffffffff82169050919050565b60006109d9826109ae565b9050919050565b6109e9816109ce565b81146109f457600080fd5b50565b600081359050610a06816109e0565b92915050565b60008060408385031215610a2357610a2261096e565b5b6000610a3185828601610999565b9250506020610a42858286016109f7565b9150509250929050565b600080fd5b600080fd5b6000601f19601f8301169050919050565b7f4e487b7100000000000000000000000000000000000000000000000000000000600052604160045260246000fd5b610a9f82610a56565b810181811067ffffffffffffffff82111715610abe57610abd610a67565b5b80604052505050565b6000610ad1610964565b9050610add8282610a96565b919050565b600067ffffffffffffffff821115610afd57610afc610a67565b5b610b0682610a56565b9050602081019050919050565b82818337600083830152505050565b6000610b35610b3084610ae2565b610ac7565b905082815260208101848484011115610b5157610b50610a51565b5b610b5c848285610b13565b509392505050565b600082601f830112610b7957610b78610a4c565b5b8135610b89848260208601610b22565b91505092915050565b600080600060608486031215610bab57610baa61096e565b5b600084013567ffffffffffffffff811115610bc957610bc8610973565b5b610bd586828701610b64565b935050602084013567ffffffffffffffff811115610bf657610bf5610973565b5b610c0286828701610b64565b9250506040610c1386828701610999565b9150509250925092565b610c2681610978565b82525050565b6000602082019050610c416000830184610c1d565b92915050565b60008060008060808587031215610c6157610c6061096e565b5b6000610c6f87828801610999565b945050602085013567ffffffffffffffff811115610c9057610c8f610973565b5b610c9c87828801610b64565b935050604085013567ffffffffffffffff811115610cbd57610cbc610973565b5b610cc987828801610b64565b9250506060610cda87828801610999565b91505092959194509250565b600060208284031215610cfc57610cfb61096e565b5b6000610d0a84828501610999565b91505092915050565b600081519050919050565b600082825260208201905092915050565b60005b83811015610d4d578082015181840152602081019050610d32565b83811115610d5c576000848401525b50505050565b6000610d6d82610d13565b610d778185610d1e565b9350610d87818560208601610d2f565b610d9081610a56565b840191505092915050565b6000610da6826109ae565b9050919050565b610db681610d9b565b82525050565b60008115159050919050565b610dd181610dbc565b82525050565b600060c082019050610dec6000830189610c1d565b8181036020830152610dfe8188610d62565b90508181036040830152610e128187610d62565b9050610e216060830186610dad565b610e2e6080830185610c1d565b610e3b60a0830184610dc8565b979650505050505050565b610e4f81610d9b565b8114610e5a57600080fd5b50565b600081359050610e6c81610e46565b92915050565b60008060408385031215610e8957610e8861096e565b5b6000610e9785828601610999565b9250506020610ea885828601610e5d565b9150509250929050565b7f496e636f7272656374207061796d656e7420616d6f756e740000000000000000600082015250565b6000610ee8601883610d1e565b9150610ef382610eb2565b602082019050919050565b60006020820190508181036000830152610f1781610edb565b9050919050565b6000819050919050565b6000610f43610f3e610f39846109ae565b610f1e565b6109ae565b9050919050565b6000610f5582610f28565b9050919050565b6000610f6782610f4a565b9050919050565b610f7781610f5c565b82525050565b6000606082019050610f926000830186610c1d565b610f9f6020830185610dad565b610fac6040830184610f6e565b949350505050565b7f4e487b7100000000000000000000000000000000000000000000000000000000600052601160045260246000fd5b6000610fee82610978565b91507fffffffffffffffffffffffffffffffffffffffffffffffffffffffffffffffff82036110205761101f610fb4565b5b600182019050919050565b7f596f7520617265206e6f7420746865206f776e6572206f66207468697320667560008201527f726e697475726500000000000000000000000000000000000000000000000000602082015250565b6000611087602783610d1e565b91506110928261102b565b604082019050919050565b600060208201905081810360008301526110b68161107a565b9050919050565b60006080820190506110d26000830187610c1d565b81810360208301526110e48186610d62565b905081810360408301526110f88185610d62565b90506111076060830184610c1d565b95945050505050565b7f4e487b7100000000000000000000000000000000000000000000000000000000600052602260045260246000fd5b6000600282049050600182168061115757607f821691505b60208210810361116a57611169611110565b5b5091905056fea264697066735822122030428c345d94c84cb59cde17691d3ff7a9de220007f68203d44047fe6249865164736f6c634300080d0033",
  "immutableReferences": {},
  "source": "// SPDX-License-Identifier: MIT\n// Tells the Solidity compiler to compile only from v0.8.13 to v0.9.0\npragma solidity ^0.8.13;\n\n// This is a simple example of a furniture marketplace contract.\n\ncontract FurnitureMarketplace {\n    struct Furniture {\n        uint256 id;\n        string name;\n        string condition;\n        address ownerAddress;\n        uint256 price;\n        bool active;\n    }\n\n    uint256 public id = 3;\n\n    mapping(uint256 => Furniture) public furnitureList;\n\n    event FurnitureCreated(uint256 id, string name, string condition, address ownerAddress, uint256 price, bool active);\n    event FurnitureUpdated(uint256 id, string name, string condition, uint256 price);\n    event FurnitureTransferred(uint256 id, address from, address to);\n    event FurnitureDeleted(uint256 id);\n\n    // Inject starter data into blockchain\n    constructor() {\n        furnitureList[0] = Furniture(0, \"1900s authentic vintage desk\", \"New\", msg.sender, 100000000000000000, true);\n        furnitureList[1] = Furniture(1, \"1880s vintage chandelier\", \"Fair\", msg.sender, 250000000000000000, true);\n        furnitureList[2] = Furniture(2, \"IKEA bed frame\", \"New\", msg.sender, 13000000000000000, true);\n    }\n\n    // Create new furniture item\n    function createFurniture(string memory _name, string memory _condition, uint256 _price) external {\n        Furniture memory newFurniture = Furniture({\n            id: id,\n            name: _name,\n            condition: _condition,\n            ownerAddress: msg.sender,\n            price: _price,\n            active: true\n        });\n\n        furnitureList[id] = newFurniture;\n\n        emit FurnitureCreated(id, _name, _condition, msg.sender, _price, true);\n        id++;\n    }\n\n    // Update furniture item details\n    function updateFurniture(uint256 _id, string memory _name, string memory _condition, uint256 _price) external {\n        Furniture storage furniture = furnitureList[_id];\n        require(msg.sender == furniture.ownerAddress, \"You are not the owner of this furniture\");\n\n        furniture.name = _name;\n        furniture.condition = _condition;\n        furniture.price = _price;\n\n        emit FurnitureUpdated(_id, _name, _condition, _price);\n    }\n\n    // Transfer furniture item to another user\n    function transferFurniture(uint256 _id, address payable _to) external payable {\n        Furniture storage furniture = furnitureList[_id];\n        require(msg.value == furniture.price, \"Incorrect payment amount\");\n\n        furniture.ownerAddress = _to;\n\n        address payable previousOwner = payable(msg.sender);\n        previousOwner.transfer(msg.value);\n\n        emit FurnitureTransferred(_id, msg.sender, _to);\n    }\n\n    // Delete user's created furniture\n    function deleteFurniture(uint256 _id, address _owner) external {\n        Furniture storage furniture = furnitureList[_id];\n        \n        // If _owner is not provided, use msg.sender\n        address owner = (_owner == address(0)) ? msg.sender : _owner;\n\n        require(owner == furniture.ownerAddress, \"You are not the owner of this furniture\");\n\n        // Label item as inactive = logical delete\n        furnitureList[_id].active = false;\n\n        // Delete the furniture\n        delete furnitureList[_id];\n\n        emit FurnitureDeleted(_id);\n    }\n}\n",
  "sourcePath": "C:\\Users\\sese\\Documents\\Code\\Blockchain\\furniturecontracts\\contracts\\FurnitureMarketplace.sol",
  "compiler": {
    "name": "solc",
    "version": "0.8.13+commit.abaa5c0e.Emscripten.clang"
  },
  "schemaVersion": "3.4.16",
  "updatedAt": "2023-12-08T15:00:34.821Z",
  "devdoc": {
    "kind": "dev",
    "methods": {},
    "version": 1
  },
  "userdoc": {
    "kind": "user",
    "methods": {},
    "version": 1
  }
}